:020000040800F2
:10000000D006002089010008351D00081D1C0008CD
:10001000311D000891020008F921000800000000CD
:10002000000000000000000000000000E51D0008C6
:100030009502000800000000A51D00083D1E0008F4
:10004000A3010008A3010008A3010008A301000800
:10005000A3010008A3010008A3010008A3010008F0
:10006000A3010008A3010008A3010008A3010008E0
:10007000A3010008A3010008A3010008A3010008D0
:10008000A3010008A3010008A3010008A3010008C0
:10009000A3010008A3010008A3010008A3010008B0
:1000A000A3010008A3010008A3010008B51E000871
:1000B000A3010008A3010008A3010008A301000890
:1000C000A3010008A3010008A3010008A301000880
:1000D000A3010008A3010008A3010008A301000870
:1000E000A3010008A3010008A301000800F002F822
:1000F00000F03AF80AA090E8000C82448344AAF188
:100100000107DA4501D100F02FF8AFF2090EBAE885
:100110000F0013F0010F18BFFB1A43F0010318473B
:100120002C2500004C250000103A24BF78C878C167
:10013000FAD8520724BF30C830C144BF04680C60ED
:10014000704700000023002400250026103A28BF35
:1001500078C1FBD8520728BF30C148BF0B60704739
:100160001FB51FBD10B510BD00F058F81146FFF7C0
:10017000F7FF02F0A3F800F076F803B4FFF7F2FF00
:1001800003BC00F07DF8000009488047094800479B
:10019000FEE7FEE7FEE7FEE7FEE7FEE7FEE7FEE737
:1001A000FEE7FEE704480549054A064B7047000094
:1001B000B11E0008ED000008D0000020D00600208D
:1001C000D0020020D00200204FF0000200B51346FC
:1001D00094469646203922BFA0E80C50A0E80C5067
:1001E000B1F12001BFF4F7AF090728BFA0E80C5018
:1001F00048BF0CC05DF804EB890028BF40F8042B11
:1002000008BF704748BF20F8022B11F0804F18BF7D
:1002100000F8012B7047704770477047754600F033
:100220002BF8AE4605006946534620F00700854688
:1002300018B020B5FFF7B6FFBDE820404FF000062C
:100240004FF000074FF000084FF0000BAC46ACE851
:10025000C009ACE8C009ACE8C009ACE8C00921F0AD
:1002600007018D46704710B50446AFF30080204665
:10027000BDE81040FFF781BF004870471000002024
:1002800001491820ABBEFEE72600020070470000BF
:10029000FFE7FEE77047000081B0EFF3108072B611
:1002A0000090FFE7FEE7000090B00F900E91002055
:1002B0000D900990FFE70E9800680D99C84000283E
:1002C00000F07F81FFE70D99012088400C900E9887
:1002D00000680C9908400B900B980C99884240F0EC
:1002E0006C81FFE70E9840680590002851D0FFE729
:1002F000059801283AD0FFE7059802283FD0FFE78C
:10030000059803285FD0FFE70598112832D0FFE752
:100310000598122838D0FFE705980021C1F2110195
:10032000884236D0FFE705980021C1F212018842C9
:100330002FD0FFE705980021C1F22101884228D083
:10034000FFE705980021C1F22201884221D0FFE792
:1003500005980021C1F2310188421AD0FFE70598C3
:100360000021C1F23201884213D02FE00E98C068FC
:1003700009902CE00E98C0680430099027E00E9890
:10038000C0680830099022E00E98C0680C300990CF
:100390001DE00E98806818B9FFE70420099011E06D
:1003A0000E988068012806D1FFE7082009900C9874
:1003B0000F99086105E0082009900C980F99486191
:1003C000FFE7FFE703E00020099000E0FFE70B985C
:1003D000FF2803D8FFE70F98049003E00F9804303C
:1003E0000490FFE7049808900B98FF2804D8FFE7D3
:1003F0000D988000039006E00D996FF01F0000EB50
:1004000081000390FFE70398079008980068079A17
:100410000F21914088430999914008430899086049
:100420000E98C079C006002840F1C680FFE7FFE7BC
:1004300041F21800C4F20200016841F001010160BC
:10044000006800F0010006900698FFE70D9820F084
:1004500003000821C4F2010140580A900D9800F0F1
:10046000030081000F2000FA01F10A9888430A90E6
:100470000F9840F60001C4F20101884203D1FFE762
:100480000020029026E00F9840F60041C4F20101DE
:10049000884203D1FFE70120019018E00F9841F254
:1004A0000001C4F20101884203D1FFE7022000905D
:1004B0000AE00F9941F20042C4F201020420914285
:1004C00008BF03200090FFE700980190FFE7019824
:1004D0000290FFE702980D9901F00301890000FAEC
:1004E00001F10A9808430A900A980D9921F0030136
:1004F0000822C4F2010288500E988079C0060028B4
:1005000009D5FFE70B9A40F20841C4F201010868DF
:100510001043086008E00B9A40F20841C4F2010160
:10052000086890430860FFE70E98807980060028ED
:1005300009D5FFE70B9A40F20C41C4F201010868AB
:100540001043086008E00B9A40F20C41C4F201012C
:10055000086890430860FFE70E98807980070028BC
:1005600009D5FFE70B9A40F20441C4F20101086883
:100570001043086008E00B9A40F20441C4F2010104
:10058000086890430860FFE70E988079C00748B17B
:10059000FFE70B9A40F20041C4F2010108681043E2
:1005A000086008E00B9A40F20041C4F201010868BB
:1005B00090430860FFE7FFE7FFE70D9801300D90DB
:1005C00079E610B07047000040F2C800C2F20000A7
:1005D0000068704740F20400C2F20000027840F266
:1005E000C801C2F2000108681044086070470000AA
:1005F00080B542F20001C4F20201086840F0100028
:100600000860032000F096F80F2000F005F800F0D5
:100610003BF8002080BD000080B582B0009040F221
:100620000000C2F20000006840F20401C2F20001C2
:100630000A784FF47A71B1FBF2F1B0FBF1F000F0FF
:1006400049FD20B1FFE701208DF8070018E0009870
:100650000F280DD8FFE700994FF0FF30002200F07F
:100660004FF8009840F20801C2F20001086003E070
:1006700001208DF8070003E000208DF80700FFE758
:100680009DF8070002B080BD83B0FFE741F218007B
:10069000C4F20200016841F001010160006800F04D
:1006A000010002900298FFE7FFE741F21C00C4F24C
:1006B0000200016841F080510160006800F0805044
:1006C00001900198FFE7FFE70421C4F201010868E7
:1006D0000090009820F0E0600090009840F00070DA
:1006E000009000980860FFE703B0704780B582B0C3
:1006F0008DF807009DF9070001F080FD02B080BD74
:1007000080B586B08DF81700049103920020029006
:1007100001F08CFD02909DF9170001900298049958
:10072000039A01F009FB0146019801F087FD06B02C
:1007300080BD000080B582B00190019801F0A0FD5D
:1007400002B080BD80B584B002900191029820B9BA
:10075000FFE701208DF80F001BE1019842F2000134
:10076000C4F20201096801F00701884216D9FFE7C7
:1007700042F20000C4F20200016821F00701019A70
:1007800011430160006800F007000199884204D01D
:10079000FFE701208DF80F00FBE0FFE702980078EB
:1007A000800700282AD5FFE7029800784007002834
:1007B00009D5FFE741F20401C4F20201086840F4E0
:1007C000E0600860FFE7029800780007002809D57C
:1007D000FFE741F20401C4F20201086840F46050EE
:1007E0000860FFE741F20401C4F20201086820F04A
:1007F000F000029A926810430860FFE702980078C0
:10080000C007002860D0FFE70298406801280ED199
:10081000FFE741F20000C4F20200006880030028F4
:1008200004D4FFE701208DF80F00B2E021E0029828
:10083000406802280ED1FFE741F20000C4F2020036
:1008400000688001002804D4FFE701208DF80F0024
:100850009FE00DE041F20000C4F202000068800752
:10086000002804D4FFE701208DF80F0091E0FFE796
:10087000FFE741F20401C4F20201086820F003001E
:10088000029A526810430860FFF79EFE0090FFE74F
:1008900041F20400C4F20200006800F00C0002996A
:1008A0004968B0EB810F0ED0FFE7FFF78DFE00998E
:1008B000401A41F28931884204D3FFE703208DF8C2
:1008C0000F0066E0E4E7FFE7019842F20001C4F29E
:1008D0000201096801F00701884216D2FFE742F2DF
:1008E0000000C4F20200016821F00701019A1143DF
:1008F0000160006800F007000199884204D0FFE71A
:1009000001208DF80F0044E0FFE7029800784007CF
:1009100000280CD5FFE741F20401C4F20201086887
:1009200020F4E060029AD26810430860FFE7029862
:100930000078000700280DD5FFE741F20401C4F25A
:100940000201086820F46050029A126940EAC2006D
:100950000860FFE700F022F841F20401C4F202014E
:100960000968C9B20A0942F22A61C0F60001895C2D
:10097000C84040F20001C2F20001086040F20800E5
:10098000C2F200000068FFF747FE00208DF80F005C
:10099000FFE79DF80F0004B080BD000086B0002086
:1009A0000590049003900290019041F20400C4F27B
:1009B000020000680590059800F00C0001460091C7
:1009C00000283FD0FFE70098042804D0FFE70098F4
:1009D000082806D037E041F20020C0F27A000190EA
:1009E00037E00598C0F3834142F23A60C0F6000058
:1009F000405C02909DF81600C007C0B1FFE741F2CD
:100A00000400C4F202000068C0F3404142F24A60B0
:100A1000C0F60000405C0490029841F20021C0F250
:100A20007A0148430499B0FBF1F0039007E0029883
:100A300040F60011C0F23D0148430390FFE70398E0
:100A4000019006E0FFE741F20020C0F27A00019039
:100A5000FFE7019806B0704780B586B0049004980F
:100A600020B9FFE701208DF817002EE304980078E5
:100A7000C007002800F0AE80FFE741F20400C4F296
:100A80000200006800F00C00042813D0FFE741F2D8
:100A90000400C4F20200006800F00C0008281BD11A
:100AA000FFE741F20400C4F202000068C00300281E
:100AB00012D5FFE741F20000C4F202000068800393
:100AC000002808D5FFE70498406820B9FFE7012017
:100AD0008DF81700F9E27CE0FFE704984068B0F574
:100AE000803F09D1FFE741F20001C4F2020108682A
:100AF00040F48030086032E00498406868B9FFE74D
:100B000041F20001C4F20201086820F4803008605C
:100B1000086820F48020086020E004984068B0F560
:100B2000A02F0DD1FFE741F20001C4F202010868D5
:100B300040F480200860086840F4803008600CE0D1
:100B400041F20001C4F20201086820F4803008601C
:100B5000086820F480200860FFE7FFE7FFE7FFE771
:100B600004984068D0B1FFE7FFF72EFD0390FFE740
:100B700041F20000C4F202000068800300280CD497
:100B8000FFE7FFF721FD0399401A652804D3FFE72B
:100B900003208DF8170098E2EAE719E0FFF714FD4B
:100BA0000390FFE741F20000C4F2020000688003F6
:100BB00000280CD5FFE7FFF707FD0399401A6528C9
:100BC00004D3FFE703208DF817007EE2EAE7FFE792
:100BD000FFE7FFE7049800788007002840F18D8048
:100BE000FFE741F20400C4F20200006810F00C0FAD
:100BF00013D0FFE741F20400C4F20200006800F0E5
:100C00000C00082829D1FFE741F20400C4F20200D9
:100C10000068C003002820D4FFE741F20000C4F2BE
:100C2000020000688007002809D5FFE704980069E2
:100C3000012804D0FFE701208DF8170045E241F2BA
:100C40000001C4F20201086820F0F800049A526919
:100C500040EAC2000860FFE74EE00498006958B31C
:100C6000FFE70021C4F2422101200860FFF7ACFC3D
:100C70000390FFE741F20000C4F202000068800721
:100C800000280CD4FFE7FFF79FFC0399401A0328C4
:100C900004D3FFE703208DF8170016E2EAE741F2DC
:100CA0000001C4F20201086820F0F800049A5269B9
:100CB00040EAC20008601EE00021C4F24221002088
:100CC0000860FFF781FC0390FFE741F20000C4F2E7
:100CD00002000068800700280CD5FFE7FFF774FCCE
:100CE0000399401A032804D3FFE703208DF8170067
:100CF000EBE1EAE7FFE7FFE7FFE70498007800078A
:100D0000002848D5FFE70498806918B3FFE740F250
:100D10008041C4F2422101200860FFF755FC039096
:100D2000FFE741F22400C4F20200006880070028B7
:100D30000CD4FFE7FFF748FC0399401A032804D3BB
:100D4000FFE703208DF81700BFE1EAE7012001F07B
:100D50002BF81FE040F28041C4F2422100200860DD
:100D6000FFF732FC0390FFE741F22400C4F20200D7
:100D70000068800700280CD5FFE7FFF725FC0399E2
:100D8000401A032804D3FFE703208DF817009CE1E5
:100D9000EAE7FFE7FFE7049800784007002840F102
:100DA000D880FFE700208DF8070041F21C00C4F254
:100DB00002000068C000002813D4FFE7FFE741F2FB
:100DC0001C00C4F20200016841F08051016000681B
:100DD00000F0805000900098FFE701208DF8070098
:100DE000FFE747F20000C4F200000068C0050028D9
:100DF00022D4FFE747F20001C4F20001086840F482
:100E000080700860FFF7E0FB0390FFE747F2000007
:100E1000C4F200000068C00500280CD4FFE7FFF70B
:100E2000D3FB0399401A652804D3FFE703208DF80C
:100E300017004AE1EAE7FFE7FFE70498C0680128E6
:100E400009D1FFE741F22001C4F20201086840F035
:100E50000100086031E00498C06868B9FFE741F21A
:100E60002001C4F20201086820F00100086008684F
:100E700020F0040008601FE00498C06805280DD128
:100E8000FFE741F22001C4F20201086840F00400CB
:100E90000860086840F0010008600CE041F22001A1
:100EA000C4F20201086820F001000860086820F020
:100EB00004000860FFE7FFE7FFE7FFE70498C0686A
:100EC000E0B1FFE7FFF780FB0390FFE741F220006E
:100ED000C4F202000068800700280ED4FFE7FFF785
:100EE00073FB0399401A41F28931884204D3FFE72A
:100EF00003208DF81700E8E0E8E71BE0FFF764FB4C
:100F00000390FFE741F22000C4F20200006880076E
:100F100000280ED5FFE7FFF757FB0399401A41F26F
:100F20008931884204D3FFE703208DF81700CCE015
:100F3000E8E7FFE79DF80700012809D1FFE741F244
:100F40001C01C4F20201086820F080500860FFE72D
:100F5000FFE70498C069002800F0B380FFE741F282
:100F60000400C4F20200006800F00C00082800F041
:100F70008280FFE70498C06902285CD1FFE7602106
:100F8000C4F2422100200860FFF71EFB0390FFE738
:100F900041F20000C4F202000068800100280CD574
:100FA000FFE7FFF711FB0399401A032804D3FFE77B
:100FB00003208DF8170088E0EAE70498006AB0F58E
:100FC000803F0CD1FFE741F20401C4F2020108683E
:100FD00020F40030049A926810430860FFE741F261
:100FE0000401C4F20201086820F47410049B1A6A18
:100FF0005B6A1A43104308606021C4F24221012059
:101000000860FFF7E1FA0390FFE741F20000C4F245
:1010100002000068800100280CD4FFE7FFF7D4FA33
:101020000399401A032804D3FFE703208DF8170023
:101030004BE0EAE71EE06021C4F242210020086094
:10104000FFF7C2FA0390FFE741F20000C4F202008A
:101050000068800100280CD5FFE7FFF7B5FA039977
:10106000401A032804D3FFE703208DF817002CE073
:10107000EAE7FFE724E00498C069012804D1FFE70C
:1010800001208DF8170020E041F20400C4F20200B4
:1010900000680290029800F480300499096A88423E
:1010A00008D1FFE7029800F470100499496A884259
:1010B00004D0FFE701208DF8170006E0FFE7FFE707
:1010C000FFE700208DF81700FFE79DF8170006B036
:1010D00080BD000080B582B00190019800F084FED0
:1010E00002B080BD81B0009001B0704781B0009027
:1010F00001B0704785B003900291FFE7039890F824
:101100003C00012804D1FFE702208DF813005BE0CA
:101110000399012081F83C00FFE7FFE703990220D3
:1011200081F83D00039800684068019003980068CA
:1011300080680090019820F070000190029801688A
:101140000198084301900198039909684860039841
:10115000006842F60041C4F20101884218D0FFE75E
:1011600003980068B0F1804F12D0FFE70398006841
:1011700040F20041C4F20001884209D0FFE7039821
:10118000006840F60001C4F2000188420ED1FFE77A
:10119000009820F080000090029841680098084371
:1011A00000900098039909688860FFE7039901207F
:1011B00081F83D00FFE70399002081F83C00FFE73C
:1011C00000208DF81300FFE79DF8130005B070476D
:1011D00080B586B004900391049820B9FFE7012000
:1011E0008DF8170084E0049890F83D0040B9FFE7BF
:1011F0000499002081F83C00049800F07DF8FFE796
:101200000499022081F83D0004980168886844F23E
:10121000070290438860049951F8040B00F052FED5
:1012200004980068806802900498006880690190C2
:1012300004980068006A00900398016802980843C7
:101240000290019840F20331884301900399886825
:10125000896940EA0121019808430190019840F60C
:101260000C418843019001984FF2F00188430190AE
:101270000399C868C96940EA0121019808430190AF
:1012800003990869096A000140EA0131019808439D
:101290000190009820F02200009003994868496965
:1012A00040EA0111009808430090029804990968E7
:1012B0008860019804990968886100980499096810
:1012C00008620499012081F84600049981F83E00E3
:1012D000049981F83F00049981F84200049981F84B
:1012E0004300049981F83D0000208DF81700FFE7C6
:1012F0009DF8170006B080BD81B0009001B0704726
:1013000080B586B004900391049890F83E008DF863
:101310000B00049890F83F008DF80A00049890F8AC
:1013200042008DF80900049890F843008DF80800F9
:101330000398B8B9FFE79DF80B00012805D1FFE736
:101340009DF80900012804D0FFE701208DF817005F
:1013500079E00499022081F83E00049981F8420066
:10136000FFE742E00398042817D1FFE79DF80A0041
:10137000012805D1FFE79DF80800012804D0FFE708
:1013800001208DF817005EE00499022081F83F00EB
:10139000049981F84300FFE726E09DF80B0001283F
:1013A0000FD1FFE79DF80A0001280AD1FFE79DF859
:1013B0000900012805D1FFE79DF80800012804D0A5
:1013C000FFE701208DF817003DE00499022081F825
:1013D0003E00049981F83F00049981F84200049985
:1013E00081F84300FFE7FFE7FFE70398019020B192
:1013F000FFE70198042807D00DE004980068002159
:10140000012200F0D7FD14E00498006804210122B5
:1014100000F0D0FD0DE00498006800210122009248
:1014200000F0C8FD009A04980068042100F0C2FD95
:10143000FFE704980168086840F001000860002098
:101440008DF81700FFE79DF8170006B080BD00007B
:1014500081B0009040F2CC00C2F20000008860B978
:10146000FFE740F27C00C2F200000068406A40F2F0
:101470007401C2F20001088006E040F27801C2F275
:10148000000100200880FFE740F2CC00C2F200001B
:101490000188013101800088022808DBFFE740F263
:1014A0007A01C2F20001088801300880FFE740F2AB
:1014B0007C00C2F2000001680020486201B0704761
:1014C00080B586B004900391029200208DF8070049
:1014D000FFE7049890F83C00012804D1FFE70220C0
:1014E0008DF8170080E00499012081F83C00FFE7A7
:1014F000FFE70298B0B9FFE704980068039B1968FA
:101500005A68DB6800F072FD04980168886920F071
:101510000C00886103988268049801688869104308
:10152000886156E00298042817D1FFE70498006804
:10153000039B19685A68DB6800F0BCFD04980168D9
:10154000886920F440608861039882680498016883
:10155000886940EA022088613AE00298082816D19A
:10156000FFE704980068039B19685A68DB6800F07D
:10157000D7FD04980168C86920F00C00C861039881
:10158000826804980168C8691043C8611FE0029826
:101590000C2817D1FFE704980068039B19685A6864
:1015A000DB6800F0F3FD04980168C86920F440602E
:1015B000C8610398826804980168C86940EA0220FB
:1015C000C86103E001208DF80700FFE7FFE7FFE7B0
:1015D000FFE7FFE70499002081F83C00FFE79DF852
:1015E00007008DF81700FFE79DF8170006B080BDD3
:1015F00080B582B00090009820B9FFE701208DF8F7
:1016000007003FE0009890F83D0040B9FFE70099DF
:10161000002081F83C00009800F038F8FFE70099BE
:10162000022081F83D00009951F8040B00F04AFCBB
:101630000099012081F84600FFE70099012081F818
:101640003E00009981F83F00009981F84000009920
:1016500081F84100FFE7FFE70099012081F842008F
:10166000009981F84300009981F84400009981F8BD
:101670004500FFE70099012081F83D0000208DF82A
:101680000700FFE79DF8070002B080BD80B58AB073
:10169000099000200890079006900590099800682E
:1016A00042F60041C4F20101884236D1FFE7FFE76C
:1016B00041F21800C4F20200016841F400610160C7
:1016C000006800F4006004900498FFE7FFE741F22F
:1016D0001800C4F20200016841F0040101600068D2
:1016E00000F0040003900398FFE74FF4E0600590DA
:1016F000002001900690079040F60000C4F201001F
:1017000005A9FEF7D1FD019A1B2002900A21FEF7E0
:10171000F7FF0298FEF7EAFFFFE70AB080BD00007E
:1017200080B592B010900F9100208DF83B000F987B
:1017300028B9FFE7109890F83E000B901CE00F9836
:10174000042805D1FFE7109890F83F000A9010E0B8
:101750000F98082805D1FFE7109890F840000990ED
:1017600004E0109890F841000990FFE709980A906A
:10177000FFE70A980B90FFE70B988DF833000F985E
:1017800028B9FFE7109890F8420008901CE00F98E5
:10179000042805D1FFE7109890F84300079010E067
:1017A0000F98082805D1FFE7109890F8440006909C
:1017B00004E0109890F845000690FFE7069807901F
:1017C000FFE707980890FFE708988DF832009DF82A
:1017D0003300012805D1FFE79DF83200012804D02D
:1017E000FFE701208DF84700C6E00F9828B9FFE712
:1017F0001099022081F83E001EE00F98042806D1BF
:10180000FFE71099022081F83F00059012E00F9841
:10181000082806D1FFE71099022081F840000490C3
:1018200005E01099022081F841000490FFE7049838
:101830000590FFE70598FFE70F9828B9FFE7109993
:10184000022081F842001EE00F98042806D1FFE72D
:101850001099022081F84300039012E00F980828A5
:1018600006D1FFE71099022081F84400029005E0BC
:101870001099022081F845000290FFE7029803903A
:10188000FFE70398FFE70F9801900C2825D80199EE
:10189000DFE801F0072323230E232323152323232B
:1018A0001C0010980168C86840F00200C86018E089
:1018B00010980168C86840F00400C86011E01098F2
:1018C0000168C86840F00800C8600AE01098016824
:1018D000C86840F01000C86003E001208DF83B00AC
:1018E000FFE79DF83B00002841D1FFE71098006812
:1018F0000F99012200F05EFB1098006842F600414B
:10190000C4F20101884218D0FFE710980068B0F1D6
:10191000804F12D0FFE71098006840F20041C4F2F7
:101920000001884209D0FFE71098006840F60001E6
:10193000C4F20001884212D1FFE710980068806865
:1019400000F007000D900D98062807D0FFE71098CB
:101950000168086840F001000860FFE706E01098A1
:101960000168086840F001000860FFE7FFE79DF8A4
:101970003B008DF84700FFE79DF8470012B080BD9F
:1019800080B582B0019001980068006900F0020102
:101990000020B0EB510F28D0FFE701980068C06825
:1019A00000F002010020B0EB510F1DD0FFE70198BD
:1019B00001686FF002000861019901200877019821
:1019C00000688069800720B1FFE70198FFF740FDBC
:1019D00006E0019800F012F9019800F013F9FFE712
:1019E000019900200877FFE7FFE701980068006988
:1019F00000F004010020B0EB910F29D0FFE701981F
:101A00000068C06800F004010020B0EB910F1ED008
:101A1000FFE7019801686FF0040008610199022056
:101A2000087701980068806910F4407F04D0FFE7D0
:101A30000198FFF70DFD06E0019800F0DFF801982E
:101A400000F0E0F8FFE7019900200877FFE7FFE7E3
:101A500001980068006900F008010020B0EBD10F88
:101A600028D0FFE701980068C06800F00801002056
:101A7000B0EBD10F1DD0FFE7019801686FF00800AF
:101A8000086101990420087701980068C0698007FF
:101A900020B1FFE70198FFF7DBFC06E0019800F0BA
:101AA000ADF8019800F0AEF8FFE701990020087743
:101AB000FFE7FFE701980068006900F010010020CF
:101AC000B0EB111F29D0FFE701980068C06800F053
:101AD00010010020B0EB111F1ED0FFE70198016834
:101AE0006FF01000086101990820087701980068DC
:101AF000C06910F4407F04D0FFE70198FFF7A8FC0D
:101B000006E0019800F07AF8019800F07BF8FFE712
:101B1000019900200877FFE7FFE701980068006956
:101B2000C00780B1FFE701980068C068C00748B1EE
:101B3000FFE7019801686FF001000861019800F06B
:101B400065F8FFE7FFE7019800680069C1B200206F
:101B5000B0EBD11F13D0FFE701980068C068C1B295
:101B60000020B0EBD11F09D0FFE7019801686FF0AA
:101B7000800008610198FFF7B5FAFFE7FFE70198D9
:101B80000068006900F040010020B0EB911F14D004
:101B9000FFE701980068C06800F040010020B0EB4A
:101BA000911F09D0FFE7019801686FF040000861BC
:101BB000019800F02FF8FFE7FFE70198006800693F
:101BC00000F020010020B0EB511F14D0FFE7019876
:101BD0000068C06800F020010020B0EB511F09D060
:101BE000FFE7019801686FF0200008610198FFF796
:101BF0007DFAFFE7FFE702B080BD000081B00090F2
:101C000001B0704781B0009001B0704781B0009082
:101C100001B0704781B0009001B07047FFE7FEE768
:101C200082B0FFE741F21800C4F20200016841F0FF
:101C300020010160006800F0200001900198FFE79A
:101C4000FFE741F21800C4F20200016841F004010C
:101C50000160006800F0040000900098FFE702B007
:101C60007047000080B592B009A82421FEF7ACFAB5
:101C7000002101910891079106910591049103912A
:101C800040F27C00C2F20000029042F60042C4F230
:101C90000102026003224260816040F6C312C2600A
:101CA000016141618161FFF7A3FC18B1FFE7FEF715
:101CB000F3FAFFE70320099000200A9001210B911D
:101CC0000C900D900E900F911090119040F27C00AE
:101CD000C2F2000009A9FFF77BFA18B1FFE7FEF78F
:101CE000DBFAFFE700200790089040F27C00C2F288
:101CF000000007A9FFF7FEF918B1FFE7FEF7CCFADD
:101D0000FFE70A2003900120049000200590069030
:101D100040F27C00C2F2000003A90822FFF7D0FBCA
:101D200018B1FFE7FEF7B8FAFFE712B080BD000078
:101D3000FFE7FEE7FFE7FEE788B007900691059210
:101D4000079800F0070004900498C0F107000528E8
:101D500003D3FFE70420019004E00498C0F10700DA
:101D60000190FFE70198039004980430062803D8F7
:101D7000FFE70020009003E0049803380090FFE79D
:101D80000098029006980399012202FA01F10139A4
:101D90000840029B984005999A40013A1140084337
:101DA00008B070477047000082B00190019840F27F
:101DB0000001C2F200010968C90844F6D352C1F219
:101DC0006202A1FB0221890948430090FFE700BF9E
:101DD000FFE70098411E00910028F8D1FFE702B00C
:101DE000704700007047000080B582B000900098F6
:101DF0000138B0F1807F03D3FFE70120019019E0A3
:101E0000009801384EF21401CEF2000108604FF044
:101E1000FF300F2100F012FA4EF21801CEF200014D
:101E2000002008604EF21002CEF20002072111607D
:101E30000190FFE7019802B080BD000080B5FEF779
:101E4000C9FB80BD80B590B006A800902821FEF7A0
:101E5000BBF9009800230593049303930293019325
:101E6000012206924FF48031079108930A920222D0
:101E70000D920E914FF4E0110F91FEF7EDFD18B1A8
:101E8000FFE7FEF709FAFFE70F2001900221029118
:101E9000002003904FF480620492059001A8FEF7A1
:101EA00051FC18B1FFE7FEF7F7F9FFE710B080BD6E
:101EB0007047000080B540F27C00C2F20000FFF7DE
:101EC0005FFD80BD83B00290019102980068009090
:101ED000029842F60041C4F20101884215D0FFE7A2
:101EE0000298B0F1804F10D0FFE7029840F2004115
:101EF000C4F20001884208D0FFE7029840F60001D2
:101F0000C4F2000188420AD1FFE7009820F0700077
:101F1000009001984168009808430090FFE70298FC
:101F200042F60041C4F20101884215D0FFE7029851
:101F3000B0F1804F10D0FFE7029840F20041C4F2A8
:101F40000001884208D0FFE7029840F60001C4F281
:101F5000000188420AD1FFE7009820F44070009009
:101F60000198C168009808430090FFE7009820F0AE
:101F7000800001994969084300900098029908601F
:101F8000019880680299C862019800680299886285
:101F9000029842F60041C4F20101884205D1FFE7F0
:101FA0000198006902990863FFE7029901204861DE
:101FB00003B0704784B0039002910192029800F040
:101FC0001F01012088400090009A0399086A9043FD
:101FD00008620198029901F01F0100FA01F20399C9
:101FE000086A1043086204B07047000087B006908A
:101FF0000591049203930698006A01900699086A75
:1020000020F001000862069880690290069901207C
:1020100042F60042C4F20102914200901CD0FFE758
:1020200006990120B1F1804F009015D0FFE7069985
:10203000012040F20042C4F20002914200900BD015
:10204000FFE706984FF60001CBF6FF710844B0FA9F
:1020500080F040090090FFE70098C00748B1FFE713
:10206000029820F00300029004990298084302901D
:1020700004E0029840F001000290FFE7029820F08F
:10208000F000029003980001C1B202980843029048
:10209000019820F00A000190059800F00A010198CB
:1020A0000843019002980699886101980699086290
:1020B00007B0704786B0059004910392029305988B
:1020C000006A00900599086A20F0100008620598DF
:1020D00080690190019820F4407001900399019863
:1020E00040EA01200190019820F47040019002988C
:1020F000000381B2019808430190009820F0A000ED
:102100000090049800F00A01009840EA0110009045
:1021100001980599886100980599086206B0704792
:1021200086B005900491039202930598006A00908E
:102130000599086A20F4807008620598C0690190CA
:10214000019820F003000190039901980843019041
:10215000019820F0F000019002980001C1B20198AE
:1021600008430190009820F400700090049800F05B
:102170000201009840EA0120009001980599C86189
:1021800000980599086206B07047000086B0059077
:102190000491039202930598006A00900599086AD9
:1021A00020F4805008620598C0690190019820F4DD
:1021B000407001900399019840EA01200190019834
:1021C00020F4704001900298000381B20198084306
:1021D0000190009820F400500090049800F0020153
:1021E000009840EA0130009001980599C861009874
:1021F0000599086206B07047FFE7FEE781B08DF8E9
:1022000003009DF9030000280ED4FFE79DF9031099
:1022100001F01F02012090404A094EF20011CEF257
:10222000000141F82200FFE701B070474EF60C5064
:10223000CEF200000068C0F30220704782B08DF833
:10224000070000919DF9070000280AD4FFE70098D5
:1022500000019DF907104EF20042CEF200028854B0
:102260000BE0009800019DF8071001F00F014EF6F9
:102270001452CEF200028854FFE702B0704700000B
:1022800083B00290029800F0070000904EF60C51C7
:10229000CEF200010868019001984FF6FF0210404D
:1022A00001900198009A40EA02200022C0F2FA52FE
:1022B000104301900198086003B0704780B582B068
:1022C00000200190FEF794F9FFF7BCFDFFF7A8FC92
:1022D000FFF7C8FC40F27C00C2F2000000903C21F5
:1022E000FFF70EF800980821FFF71AFAFFE740F20F
:1022F000CC00C2F20000008860B9FFE740F27C0029
:10230000C2F200000068406A40F27401C2F20001AB
:1023100008800BE040F27C00C2F200000068406AD6
:1023200040F27801C2F200010880FFE740F27A0033
:10233000C2F20000008840F6C411484340F2760122
:10234000C2F20001088040F27400C2F2000000886E
:102350000988084440F27801C2F20001098801446A
:1023600040F2C400C2F200000180008800F043F88F
:1023700044F27462CFF2946245F60673C3F6987322
:1023800000F050F800F006F840F27001C2F20001CF
:102390000860ACE721F0004201F00043A2F1605276
:1023A000B2F5801F28BFD2F17F6C0BD95FEA001C09
:1023B00043EAC20242EB507018BF704728BF20F0BA
:1023C00001007047B2F5801FBCBF184670474FEA46
:1023D000410C1CF5001F02D2084600F021B970B56F
:1023E00000F0CAF800000089FFF7F6BF4FF0004088
:1023F000A0F58000704710F0004248BF4042B0FA9C
:1024000080F310FA03F10AD0C3F11D0303F58063D2
:1024100002EB03524FEA415002EBD12170474FF0DB
:102420000000704770B5DFF848C11CEA111E1EBFDE
:102430001CEA13159EEA0C0F95EA0C0F00F06F8052
:1024400081EA03044EEAD47EAE4421EA4C1123EA29
:102450004C1341F4801143F48013AEF17F7EA1FB55
:10246000024CA0FB0365361955EB0C05A1FB034C90
:102470004CF10003A0FB021C16EB0C06654153F166
:102480000003094218BF46F0010613F4007F0BD188
:102490004FEA03314FEA053041EA155140EA165040
:1024A00034036FF003020AE04FEAC3214FEAC5206C
:1024B00041EA555140EA5650F4026FF0020202EB35
:1024C0002E4201EB025585EACE710AD05FEA440C38
:1024D00018BF24F0004450F1000041F1000120EA4F
:1024E000D47040F2FE7C624500D270BDA84214BF99
:1024F0004FF080444FF04044002E08BF0024BEF14E
:10250000806FA8BFA1F1C041BDE8704080F2828019
:1025100001F1C04101F000414FF0000070470CEAAA
:1025200013159EEA0C0F18BF95EA0C0F06D081EA2E
:10253000030E4FF000000EF0004170BD00F01CF8DB
:102540008900013E00F007B800F009B84FEA430CDB
:102550005FEA5C5C08D081EA030100F05BB84FEAF7
:10256000410C5FEA5C5CF6D102494FF00000704715
:102570000000FF070000F87F0EF1020E2EF0030EA0
:102580005EF8046B364205D4012A43EB030515F5CA
:10259000001F12D8012841EB010C1CF5001F0CD8BC
:1025A0000ED14FEAD17C0CEB4C0C0CF1020C15F562
:1025B000001F08BF4CEBD37C04E04FF0080C01E097
:1025C0004FEAD37C0CEB4C0526FA05F606F007061D
:1025D000B6F1040C06D20EEB860CBDE870404CF050
:1025E000010C6047DFE80CF0090B02024FF00041DC
:1025F000A1F500214FF0000070BD194610460128DA
:1026000051EB010418BFD4F5001484BF002001F081
:10261000004170BD0808A0F500114FEA3101704774
:10262000FF2141EAD050C0057047000000000000C3
:102630000000010203040607080902030405060757
:1026400008090A0B0C0D0E0F10100102702600086D
:10265000000000201000000028010008802600086B
:1026600010000020C0060000440100080000000027
:102670000024F40001000000100000000000000031
:04000005080000ED02
:00000001FF
